:100000000C9462000C948A000C948A000C948A0070
:100010000C948A000C948A000C948A000C948A0038
:100020000C948A000C948A000C948A000C948A0028
:100030000C948A000C948A000C948A000C948A0018
:100040000C9429010C948A000C940D040C943F0428
:100050000C948A000C948A000C948A000C948A00F8
:100060000C948A000C948A00000000080002010031
:100070000003040700000000000000000102040863
:100080001020408001020408102001020408102002
:10009000040404040404040402020202020203032E
:1000A00003030303000000002300260029000000D2
:1000B0000000250028002B0000000000240027007D
:1000C0002A006F0411241FBECFEFD8E0DEBFCDBFE2
:1000D00011E0A0E0B1E0EAE2FAE002C005900D9282
:1000E000A031B107D9F721E0A0E1B1E001C01D9234
:1000F000A63BB207E1F710E0C4ECD0E004C02297C1
:10010000FE010E940F05C23CD107C9F70E94B3044B
:100110000C9413050C940000CF92DF92EF92FF92A3
:100120000F931F93E82FF92F05C0015011092109E2
:10013000310961F1908196239417B9F305C00150FC
:1001400011092109310911F1908196239413F7CFF8
:10015000C12CD12CE12CF12C0AC08FEFC81AD80A7F
:10016000E80AF80A0C151D052E053F0579F0808177
:100170008623841791F36C2D7D2D8E2D9F2D1F913D
:100180000F91FF90EF90DF90CF90089560E070E0C6
:1001900080E090E01F910F91FF90EF90DF90CF9063
:1001A000089526E040E855E260E070E089E191E0E2
:1001B0000C94AB0361E08DE00E942D0261E08CE0C5
:1001C0000E942D0261E08BE00E942D0261E08DE033
:1001D0000E94660260E08CE00E94660261E08BE0B3
:1001E0000E94660261E087E00E942D0260E087E0E5
:1001F0000E94660282E090E00E94BE0161E087E01A
:100200000E9466028AE090E00E94BE0160E087E002
:100210000E94660260E086E00E942D0220E432E443
:100220004FE050E061E086E00E949C0260357D4234
:100230008105910524F460E08DE00E94660260E093
:100240008CE00E94660264E670E080E090E00C942E
:1002500096011F920F920FB60F9211242F933F9386
:100260008F939F93AF93BF9380911101909112014F
:10027000A0911301B09114013091100123E0230FDC
:100280002D3720F40196A11DB11D05C026E8230FCE
:100290000296A11DB11D209310018093110190932E
:1002A0001201A0931301B093140180911501909154
:1002B0001601A0911701B09118010196A11DB11D61
:1002C0008093150190931601A0931701B093180124
:1002D000BF91AF919F918F913F912F910F900FBE42
:1002E0000F901F9018953FB7F89480911501909149
:1002F0001601A0911701B091180126B5A89B05C061
:100300002F3F19F00196A11DB11D3FBF6627782F21
:10031000892F9A2F620F711D811D911D42E0660F7A
:10032000771F881F991F4A95D1F70895CF92DF92C2
:10033000EF92FF92CF93DF936B017C010E947301D8
:10034000EB01C114D104E104F10489F00E94EA0434
:100350000E9473016C1B7D0B683E734090F381E03B
:10036000C81AD108E108F108C851DC4FEACFDF9183
:10037000CF91FF90EF90DF90CF900895823091055C
:1003800038F0880F991F880F991F05970197F1F78B
:100390000895789484B5826084BD84B5816084BDFD
:1003A00085B5826085BD85B5816085BDEEE6F0E0EE
:1003B000808181608083E1E8F0E01082808182604A
:1003C0008083808181608083E0E8F0E080818160CB
:1003D0008083E1EBF0E0808184608083E0EBF0E0FB
:1003E000808181608083EAE7F0E08081846080839F
:1003F0008081826080838081816080838081806849
:1004000080831092C1000895833081F028F48130F8
:1004100099F08230A1F008958730A9F08830B9F0C2
:100420008430D1F4809180008F7D03C08091800062
:100430008F7780938000089584B58F7702C084B54C
:100440008F7D84BD08958091B0008F7703C0809127
:10045000B0008F7D8093B0000895CF93DF9390E03C
:10046000FC01E458FF4F2491FC01E057FF4F8491B9
:10047000882349F190E0880F991FFC01E854FF4F51
:10048000A591B49182559F4FFC01C591D4919FB71E
:10049000611108C0F8948C91209582238C938881F7
:1004A00082230AC0623051F4F8948C91322F309537
:1004B00083238C938881822B888304C0F8948C9149
:1004C000822B8C939FBFDF91CF9108950F931F9341
:1004D000CF93DF931F92CDB7DEB7282F30E0F9011D
:1004E000E859FF4F8491F901E458FF4F1491F90145
:1004F000E057FF4F04910023C9F0882321F069835E
:100500000E9404026981E02FF0E0EE0FFF1FE25528
:10051000FF4FA591B4919FB7F8948C91611103C0DE
:100520001095812301C0812B8C939FBF0F90DF9189
:10053000CF911F910F9108950F931F93762F90E005
:10054000FC01E458FF4F6491FC01E057FF4FE49138
:100550007111762FF0E0EE0FFF1FEC55FF4F8591E4
:10056000949189019A013F70472F0E948C00611578
:1005700071058105910531F06F5F7F4F8F4F9F4F60
:100580009F7003C060E070E0CB011F910F91089550
:10059000FC01818D228D90E0805C9F4F821B910930
:1005A0008F7399270895FC01918D828D981731F0F2
:1005B000828DE80FF11D858D90E008958FEF9FEFFC
:1005C0000895FC01918D828D981761F0828DDF0175
:1005D000A80FB11D5D968C91928D9F5F9F73928F36
:1005E00090E008958FEF9FEF089585E694E0892BC2
:1005F00049F080E090E0892B29F00E946504811188
:100600000C9400000895FC01848DDF01A80FB11D3A
:10061000A35ABF4F2C91848D90E001968F73992738
:10062000848FA689B7892C93A089B1898C91806425
:100630008C93938D848D981306C00288F389E02DE6
:1006400080818F7D80830895CF93DF93EC01888D27
:100650008823C9F0EA89FB89808185FD05C0A889C6
:10066000B9898C9186FD0FC00FB607FCF5CF80814C
:1006700085FFF2CFA889B9898C9185FFEDCFCE0196
:100680000E940303E7CFDF91CF910895CF92DF92CD
:10069000FF920F931F93CF93DF931F92CDB7DEB7D7
:1006A0006C0181E0D60158968C9358975B969C918B
:1006B0005B975C968C915C97981307C05096ED9170
:1006C000FC915197808185FD2EC0F601038D10E0CD
:1006D0000F5F1F4F0F731127F02EF601848DF81254
:1006E00011C00FB607FCF9CFD6015096ED91FC91E1
:1006F0005197808185FFF1CFC60169830E94030372
:100700006981EBCF838DE80FF11DE35AFF4F6083C2
:10071000D6015B960C935B975296ED91FC915397A3
:10072000808180620CC0D6015696ED91FC9157975E
:1007300060835096ED91FC91519780818064808315
:1007400081E090E00F90DF91CF911F910F91FF908A
:10075000DF90CF900895BF92CF92DF92EF92FF92F9
:10076000CF93DF93EC016A017B01B22EE889F9890E
:1007700082E08083411581EE580761057105A1F083
:1007800060E079E08DE390E0A70196010E94EB0420
:1007900021503109410951095695479537952795BB
:1007A000211580E1380798F0E889F989108260E81E
:1007B00074E88EE190E0A70196010E94EB042150BD
:1007C0003109410951095695479537952795EC858B
:1007D000FD853083EE85FF852083188EEC89FD89A9
:1007E000B082EA89FB89808180618083EA89FB8904
:1007F000808188608083EA89FB898081806880832A
:10080000EA89FB8980818F7D8083DF91CF91FF9082
:10081000EF90DF90CF90BF9008951F920F920FB688
:100820000F9211242F938F939F93EF93FF93E09157
:100830002901F0912A018081E0912F01F09130018E
:1008400082FD12C09081809132018F5F8F73209161
:100850003301821751F0E0913201F0E0E75EFE4F84
:10086000958F8093320101C08081FF91EF919F911C
:100870008F912F910F900FBE0F901F9018951F9280
:100880000F920FB60F9211242F933F934F935F93C4
:100890006F937F938F939F93AF93BF93EF93FF9348
:1008A00089E191E00E940303FF91EF91BF91AF9125
:1008B0009F918F917F916F915F914F913F912F9178
:1008C0000F900FBE0F901F90189589E191E00E9444
:1008D000C80221E0892B09F420E0822F08951092AC
:1008E0001C0110921B0188EE93E0A0E0B0E0809321
:1008F0001D0190931E01A0931F01B093200184E07D
:1009000091E090931A018093190185EC90E0909307
:1009100026018093250184EC90E090932801809338
:10092000270180EC90E090932A018093290181ECCB
:1009300090E090932C0180932B0182EC90E09093B7
:100940002E0180932D0186EC90E0909330018093EE
:100950002F01109232011092330110923401109243
:100960003501089508950E94C9010E94B2040E94B1
:10097000D100C5EFD2E00E94DA002097E1F30E9497
:10098000F502F9CFCF92DF92EF92FF920F931F9370
:10099000CF93DF936C017A01EB01E60EF71E00E0C6
:1009A00010E0CE15DF0561F06991D601ED91FC9163
:1009B0000190F081E02DC6010995080F191FF1CFB4
:1009C000C801DF91CF911F910F91FF90EF90DF90C1
:1009D000CF9008950895A1E21A2EAA1BBB1BFD011A
:1009E0000DC0AA1FBB1FEE1FFF1FA217B307E4070E
:1009F000F50720F0A21BB30BE40BF50B661F771F66
:100A0000881F991F1A9469F7609570958095909545
:100A10009B01AC01BD01CF010895EE0FFF1F0590B2
:0A0A2000F491E02D0994F894FFCF43
:100A2A00000000004603C204C802E102D302240304
:00000001FF
