:100000000C9462000C948A000C948A000C948A0070
:100010000C948A000C948A000C948A000C948A0038
:100020000C948A000C948A000C948A000C948A0028
:100030000C948A000C948A000C948A000C948A0018
:100040000C943C010C948A000C9420040C945204EF
:100050000C948A000C948A000C948A000C948A00F8
:100060000C948A000C948A00000000080002010031
:100070000003040700000000000000000102040863
:100080001020408001020408102001020408102002
:10009000040404040404040402020202020203032E
:1000A00003030303000000002300260029000000D2
:1000B0000000250028002B0000000000240027007D
:1000C0002A00820411241FBECFEFD8E0DEBFCDBFCF
:1000D00011E0A0E0B1E0EAE1FCE002C005900D9281
:1000E000AA32B107D9F721E0AAE2B1E001C01D921E
:1000F000A03DB207E1F710E0C4ECD0E004C02297C5
:10010000FE010E940706C23CD107C9F70E94C6043F
:100110000C940B060C940000CF92DF92EF92FF92AA
:100120000F931F93E82FF92F05C0015011092109E2
:10013000310961F1908196239417B9F305C00150FC
:1001400011092109310911F1908196239413F7CFF8
:10015000C12CD12CE12CF12C0AC08FEFC81AD80A7F
:10016000E80AF80A0C151D052E053F0579F0808177
:100170008623841791F36C2D7D2D8E2D9F2D1F913D
:100180000F91FF90EF90DF90CF90089560E070E0C6
:1001900080E090E01F910F91FF90EF90DF90CF9063
:1001A000089526E040E855E260E070E083E391E0E6
:1001B0000C94BE03CF92DF92EF92FF9261E087E052
:1001C0000E94400260E087E00E94790282E090E0B5
:1001D0000E94D10161E087E00E9479028AE090E00C
:1001E0000E94D10160E087E00E94790260E086E031
:1001F0000E94400220E432E44FE050E061E086E0FB
:100200000E94AF026B017C0124E930E040E050E045
:100210000E94E605BA01A9012AE030E083E391E0FB
:100220000E94790560E071E083E391E00E9413058C
:10023000C701B6012AE330E040E050E00E94E60545
:10024000BA01A9012AE030E083E391E00E94790538
:1002500065E071E083E391E00E94130583E391E0A0
:100260000E941C0564E670E080E090E0FF90EF9053
:10027000DF90CF900C94A9011F920F920FB60F92AE
:1002800011242F933F938F939F93AF93BF938091AC
:100290002B0190912C01A0912D01B0912E01309154
:1002A0002A0123E0230F2D3720F40196A11DB11D53
:1002B00005C026E8230F0296A11DB11D20932A0137
:1002C00080932B0190932C01A0932D01B0932E01CC
:1002D00080912F0190913001A0913101B0913201B4
:1002E0000196A11DB11D80932F0190933001A09321
:1002F0003101B0933201BF91AF919F918F913F91A6
:100300002F910F900FBE0F901F9018953FB7F89444
:1003100080912F0190913001A0913101B091320173
:1003200026B5A89B05C02F3F19F00196A11DB11D50
:100330003FBF6627782F892F9A2F620F711D811D6D
:10034000911D42E0660F771F881F991F4A95D1F7CC
:100350000895CF92DF92EF92FF92CF93DF936B01DC
:100360007C010E948601EB01C114D104E104F10477
:1003700089F00E94C3050E9486016C1B7D0B683EBC
:10038000734090F381E0C81AD108E108F108C85120
:10039000DC4FEACFDF91CF91FF90EF90DF90CF90CD
:1003A00008958230910538F0880F991F880F991FA2
:1003B00005970197F1F70895789484B5826084BD1C
:1003C00084B5816084BD85B5826085BD85B5816059
:1003D00085BDEEE6F0E0808181608083E1E8F0E0B9
:1003E0001082808182608083808181608083E0E8E8
:1003F000F0E0808181608083E1EBF0E080818460C7
:100400008083E0EBF0E0808181608083EAE7F0E0C8
:10041000808184608083808182608083808181602C
:1004200080838081806880831092C100089583302A
:1004300081F028F4813099F08230A1F0089587305E
:10044000A9F08830B9F08430D1F4809180008F7D9C
:1004500003C0809180008F7780938000089584B5D9
:100460008F7702C084B58F7D84BD08958091B000E0
:100470008F7703C08091B0008F7D8093B000089586
:10048000CF93DF9390E0FC01E458FF4F2491FC01EF
:10049000E057FF4F8491882349F190E0880F991F1E
:1004A000FC01E854FF4FA591B49182559F4FFC0188
:1004B000C591D4919FB7611108C0F8948C91209593
:1004C00082238C93888182230AC0623051F4F8948D
:1004D0008C91322F309583238C938881822B888353
:1004E00004C0F8948C91822B8C939FBFDF91CF91A5
:1004F00008950F931F93CF93DF931F92CDB7DEB76D
:10050000282F30E0F901E859FF4F8491F901E458B0
:10051000FF4F1491F901E057FF4F04910023C9F0F8
:10052000882321F069830E9417026981E02FF0E09F
:10053000EE0FFF1FE255FF4FA591B4919FB7F894BE
:100540008C91611103C01095812301C0812B8C9384
:100550009FBF0F90DF91CF911F910F9108950F933F
:100560001F93762F90E0FC01E458FF4F6491FC014B
:10057000E057FF4FE4917111762FF0E0EE0FFF1F6F
:10058000EC55FF4F8591949189019A013F70472F57
:100590000E948C00611571058105910531F06F5F36
:1005A0007F4F8F4F9F4F9F7003C060E070E0CB0183
:1005B0001F910F910895FC01818D228D90E0805C48
:1005C0009F4F821B91098F7399270895FC01918D8C
:1005D000828D981731F0828DE80FF11D858D90E0A6
:1005E00008958FEF9FEF0895FC01918D828D9817EC
:1005F00061F0828DDF01A80FB11D5D968C91928D07
:100600009F5F9F73928F90E008958FEF9FEF089503
:1006100088E794E0892B49F080E090E0892B29F06D
:100620000E94780481110C9400000895FC01848DCF
:10063000DF01A80FB11DA35ABF4F2C91848D90E00C
:1006400001968F739927848FA689B7892C93A089E7
:10065000B1898C9180648C93938D848D981306C09E
:100660000288F389E02D80818F7D80830895CF9368
:10067000DF93EC01888D8823C9F0EA89FB898081AA
:1006800085FD05C0A889B9898C9186FD0FC00FB67C
:1006900007FCF5CF808185FFF2CFA889B9898C91BD
:1006A00085FFEDCFCE010E941603E7CFDF91CF91FA
:1006B0000895CF92DF92FF920F931F93CF93DF9312
:1006C0001F92CDB7DEB76C0181E0D60158968C93AE
:1006D00058975B969C915B975C968C915C9798136E
:1006E00007C05096ED91FC915197808185FD2EC0F9
:1006F000F601038D10E00F5F1F4F0F731127F02ECF
:10070000F601848DF81211C00FB607FCF9CFD6019F
:100710005096ED91FC915197808185FFF1CFC601F4
:1007200069830E9416036981EBCF838DE80FF11D69
:10073000E35AFF4F6083D6015B960C935B9752960A
:10074000ED91FC915397808180620CC0D601569642
:10075000ED91FC91579760835096ED91FC915197E4
:1007600080818064808381E090E00F90DF91CF9161
:100770001F910F91FF90DF90CF900895BF92CF927D
:10078000DF92EF92FF92CF93DF93EC016A017B013E
:10079000B22EE889F98982E08083411581EE5807FD
:1007A00061057105A1F060E079E08DE390E0A701BB
:1007B00096010E94C40521503109410951095695FD
:1007C000479537952795211580E1380798F0E889F6
:1007D000F989108260E874E88EE190E0A701960143
:1007E0000E94C40521503109410951095695479588
:1007F00037952795EC85FD853083EE85FF85208331
:10080000188EEC89FD89B082EA89FB89808180613C
:100810008083EA89FB89808188608083EA89FB89FB
:10082000808180688083EA89FB8980818F7D8083D5
:10083000DF91CF91FF90EF90DF90CF90BF90089520
:100840001F920F920FB60F9211242F938F939F93A5
:10085000EF93FF93E0914301F09144018081E09197
:100860004901F0914A0182FD12C0908180914C01B2
:100870008F5F8F7320914D01821751F0E0914C01F1
:10088000F0E0ED5CFE4F958F80934C0101C08081BC
:10089000FF91EF919F918F912F910F900FBE0F902D
:1008A0001F9018951F920F920FB60F9211242F933D
:1008B0003F934F935F936F937F938F939F93AF93E8
:1008C000BF93EF93FF9383E391E00E941603FF91A0
:1008D000EF91BF91AF919F918F917F916F915F91B8
:1008E0004F913F912F910F900FBE0F901F90189531
:1008F00083E391E00E94DB0221E0892B09F420E0F0
:10090000822F0895109236011092350188EE93E0FF
:10091000A0E0B0E08093370190933801A0933901B3
:10092000B0933A018CE091E09093340180933301CD
:1009300085EC90E09093400180933F0184EC90E03F
:10094000909342018093410180EC90E090934401A8
:100950008093430181EC90E09093460180934501A0
:1009600082EC90E0909348018093470186EC90E000
:1009700090934A018093490110924C0110924D01CD
:1009800010924E0110924F01089508950E94DC01CB
:100990000E94C5040E94D100C8E0D3E00E94DA00A2
:1009A0002097E1F30E940803F9CFCF92DF92EF92F4
:1009B000FF920F931F93CF93DF936C017A01EB01AA
:1009C000E60EF71E00E010E0CE15DF0561F069913C
:1009D000D601ED91FC910190F081E02DC6010995C1
:1009E000080F191FF1CFC801DF91CF911F910F910F
:1009F000FF90EF90DF90CF9008956115710581F021
:100A0000DB010D900020E9F7AD0141505109461B73
:100A1000570BDC01ED91FC910280F381E02D0994EC
:100A200080E090E008950C94FD04DC01ED91FC91D0
:100A30000190F081E02D099468E171E00C94FD04CF
:100A40008F929F92AF92BF92CF92DF92EF92FF92DE
:100A50000F931F93CF93DF93CDB7DEB7A1970FB658
:100A6000F894DEBF0FBECDBF7C01C42EE52FCB01B5
:100A7000D22E19A221E02D1510F02AE0D22E8E01DF
:100A80000F5D1F4F8D2C912CA12CB12C6C2D7E2F26
:100A9000A50194010E94C4058C2DD29E80191124B9
:100AA000015011098A3014F4805D01C0895CF8019D
:100AB0008083211531054105510521F0C22EE32F18
:100AC000CA01E4CFB801C7010E94FD04A1960FB688
:100AD000F894DEBF0FBECDBFDF91CF911F910F9174
:100AE000FF90EF90DF90CF90BF90AF909F908F904E
:100AF0000895CF92DF92EF92FF920F931F93CF93BF
:100B0000DF93EC016A017B012115310579F4E8815D
:100B1000F9810190F081E02D642FDF91CF911F9139
:100B20000F91FF90EF90DF90CF9009942A3031051C
:100B3000E9F477FF1AC06DE20E9415058C01442785
:100B40005527BA014C195D096E097F092AE0CE01CB
:100B50000E942005800F911FDF91CF911F910F916F
:100B6000FF90EF90DF90CF9008952AE0B701A601A3
:100B7000CE01DF91CF911F910F91FF90EF90DF9009
:100B8000CF900C9420050895A1E21A2EAA1BBB1B3E
:100B9000FD010DC0AA1FBB1FEE1FFF1FA217B30749
:100BA000E407F50720F0A21BB30BE40BF50B661F5F
:100BB000771F881F991F1A9469F760957095809523
:100BC00090959B01AC01BD01CF010895052E97FBC7
:100BD0001EF400940E94FD0557FD07D00E94C40535
:100BE00007FC03D04EF40C94FD05509540953095CC
:100BF00021953F4F4F4F5F4F089590958095709589
:100C000061957F4F8F4F9F4F0895EE0FFF1F059007
:0A0C1000F491E02D0994F894FFCF51
:100C1A00696E2C2000636D00000000005903D504A2
:100C2A00DB02F402E60237030D0A006E616E006908
:0A0C3A006E66006F7666002E000063
:00000001FF
